:1000000000800020BD01000029250000F52400002B
:10001000F5240000F5240000F5240000F52400007C
:10002000F5240000F5240000F52400002925000037
:1000300029250000F52400002925000029250000BD
:100040002925000029250000BD0D000029250000FC
:100050002925000029250000292500002925000068
:100060002925000029250000292500002925000058
:100070002925000029250000292500002925000048
:100080002925000029250000292500002925000038
:100090002925000029250000292500002925000028
:1000A0002925000029250000292500002925000018
:1000B0002925000029250000292500002925000008
:1000C00029250000292500002925000029250000F8
:1000D00029250000292500002925000029250000E8
:1000E00029250000292500002925000029250000D8
:1000F00029250000292500002925000029250000C8
:1001000029250000292500002925000029250000B7
:1001100029250000292500002925000029250000A7
:100120002925000029250000292500002925000097
:100130002925000029250000292500002925000087
:100140002925000029250000292500002925000077
:1001500005110000BD180000292500002925000018
:10016000F50D0000C113000029250000292500001D
:100170002925000029250000292500002925000047
:100180002925000029250000292500002925000037
:100190002925000029250000292500002925000027
:1001A0002925000029250000292500002925000017
:1001B00029250000292500002925000008B5444B09
:1001C0004CF220521A804DF628121A8000BF00BF50
:1001D00002F0AEF93F4B4FF010621A603E4A9A604F
:1001E0003E4ADA603E4A136813F4807301BF3D490A
:1001F0000B604FF4A85313603B4B1A78110748BFAC
:100200001A783A4944BF42F008021A70384B2A2241
:100210001A70384A384B8B4204D252F8040F43F814
:10022000040BF8E7354B364A0021934202D243F8DB
:10023000041BFAE7334A3448002350F8231042F8ED
:10024000231001336F2BF8D1304B314A802103F852
:10025000011B9342FBD12F4B2A4A1A602E4B0A22D4
:100260001A70A3F5805324225A70A0221A709A792A
:100270009207FCD59A79D006FCD4284A937903F0EA
:100280000C03082B254BF9D103221A7140225A7115
:100290009A799106FCD521498A79204B5206FBD5E3
:1002A0001F4A204911600221516020221A709A7958
:1002B00002F00C020C2AFAD11B4B1C4A1A6062B6DF
:1002C00002F060FA02F03AF900F0F4F8FEE700BF3D
:1002D0000E20054030800440823F04000100002BC6
:1002E00010D0034014D0034002D007406C0000201F
:1002F00000E00740EC2A000000000020000400207D
:1003000074060020000200200000000000E400E06D
:100310005FE400E008ED00E00050064000400640C9
:10032000448004400000131104800440C010050004
:10033000FFFFFFFFFFFFFFFFFFFFFFFFFFFFFFFFCD
:10034000FFFFFFFFFFFFFFFFFFFFFFFFFFFFFFFFBD
:10035000FFFFFFFFFFFFFFFFFFFFFFFFFFFFFFFFAD
:10036000FFFFFFFFFFFFFFFFFFFFFFFFFFFFFFFF9D
:10037000FFFFFFFFFFFFFFFFFFFFFFFFFFFFFFFF8D
:10038000FFFFFFFFFFFFFFFFFFFFFFFFFFFFFFFF7D
:10039000FFFFFFFFFFFFFFFFFFFFFFFFFFFFFFFF6D
:1003A000FFFFFFFFFFFFFFFFFFFFFFFFFFFFFFFF5D
:1003B000FFFFFFFFFFFFFFFFFFFFFFFFFFFFFFFF4D
:1003C000FFFFFFFFFFFFFFFFFFFFFFFFFFFFFFFF3D
:1003D000FFFFFFFFFFFFFFFFFFFFFFFFFFFFFFFF2D
:1003E000FFFFFFFFFFFFFFFFFFFFFFFFFFFFFFFF1D
:1003F000FFFFFFFFFFFFFFFFFFFFFFFFFFFFFFFF0D
:10040000FFFFFFFFFFFFFFFFFFFFFFFFDEF9FFFF23
:10041000044B05481B1A062B02D9044B03B118479D
:10042000704700BF6F0000206C000020000000003B
:1004300005490648091A891001EBD171491002D00B
:10044000034B03B1184770476C0000206C0000207C
:100450000000000010B5064C237843B9FFF7D8FF21
:10046000044B13B10448AFF300800123237010BD87
:100470000004002000000000F02A000008B5084B2E
:100480001BB108480849AFF300800848036813B956
:10049000BDE80840CCE7064B002BF9D09847F7E7BA
:1004A00000000000F02A0000040400206C0000207E
:1004B0000000000038B500F09FFD00F0BFF800F02C
:1004C0006FFB00F073FD00F009FF00F07BFA00F015
:1004D00095FA08B930BFFAE700F078F9044648B158
:1004E00043683BB100F096FC23789A0702D520467A
:1004F00000F0DCF8334C25782378EDB223B9324B89
:100500001B78D3B1022519E02378022B05D12E4A9E
:10051000137893B1013B137010E02378012B03D0C3
:100520002378032B0AD105E000F032FF0028F7D032
:10053000032503E000F02CFF00B901252278214BB0
:10054000954228D05A682AB15A68526812B15B683D
:100550005B68984725702378022B02D100F05AFE81
:1005600000E0002060606268164B32B15A68126881
:100570008AB15B681B6898470DE000F0CCF805462F
:1005800048B1037843F00203037000F0EDF810B9AE
:10059000284600F08BF863688BB100F0C5F870B99D
:1005A000084B5B689B689847044640B100F0DCF854
:1005B00028B923789B0702D5204600F077F800F091
:1005C00027FA84E71C04002000000020012810B551
:1005D0000C4611461A4606D005D3022808D12046FB
:1005E00002F044F804E02046BDE8104002F000B9F3
:1005F000204610BD027803460020FF2A06D05A7814
:100600000232104480B213F8082FF6E7704780F3E7
:100610001088BFF35F8FBFF34F8FBFF36F8FBFF3B0
:100620005F8FBFF34F8FBFF36F8F704710B500F030
:1006300021FD044600F018FD604310BD38B5FFF7FA
:10064000F5FF45000446281802F0C2F8044B186074
:1006500020B10444986028441C61986138BD00BFF3
:100660002404002010B5EFF3108072B6BFF35F8F43
:10067000BFF34F8FBFF36F8F0A4A117F0423022409
:100680000B4203D0013CE4B25B08F9E72BB10B430A
:100690001377054A02EBC40400E01C46FFF7B7FFDE
:1006A000204610BD240400202804002010B5024676
:1006B000EFF3108072B6BFF35F8FBFF34F8FBFF3BE
:1006C0006F8F0D4B03F110018A42A3F1040109D091
:1006D00003F10804A24207D09A4207D0BDE81040B7
:1006E000FFF795BF042202E0022200E001220B7F07
:1006F00023EA02030B77F1E72804002010B548B184
:100700004468FFF793FF002102462046BDE81040F1
:1007100002F079B810BD10B5FFF7A4FF044608B188
:10072000FFF7ECFF204610BD064A11785378994236
:1007300005D19378D078181A18BF0120704700208F
:10074000704700BF44040020064A1178537899424C
:1007500005D1D07893781B1A584258417047002031
:10076000704700BF4404002038B50546EFF31084FD
:1007700072B6BFF35F8FBFF34F8FBFF36F8FFFF77B
:10078000D3FF70B9104A137802EB8301013303F0F1
:1007900001034D60137033B9D37883F00103D37034
:1007A00001E0002000E0012084F31088BFF35F8F98
:1007B000BFF34F8FBFF36F8FBFF35F8FBFF34F8FC9
:1007C000BFF36F8F38BD00BF4404002010B5EFF3B6
:1007D000108472B6BFF35F8FBFF34F8FBFF36F8F7D
:1007E000FFF7B2FF08B100200DE00E4A537802EB8C
:1007F0008301013303F00103486853701BB99378F8
:1008000083F00103937084F31088BFF35F8FBFF30D
:100810004F8FBFF36F8FBFF35F8FBFF34F8FBFF368
:100820006F8F10BD4404002070B50B4A1678034644
:1008300014460020013BDBB2FF2B0CD0F21A283209
:100840002825B2FBF5F105FB112204EB4202528888
:10085000104480B2EEE770BD5004002038B5344B30
:10086000BFF35F8F03F152024FF00100D2E84F1F38
:10087000C2E8440F002CF9D1BFF35F8F11F0FF0FD6
:100880000ED1B3F854200132A3F85420B3F8582005
:10089000A3F85620BFF35F8F83F85210BFF35F8F2A
:1008A0000121BFF35F8F83F85A10BFF35F8F93F876
:1008B0005B001F4A20B9B2F95C0008B182F85B10F6
:1008C00093F85B301A4C012B1FD002D3022B22D09D
:1008D00038BD94F85E304BB3B4F8605000F030FC93
:1008E000281A85B2B4F96200ABB20922800013FB6A
:1008F0000200082390FBF3F000B200F035FCB4F8DE
:1009000062000544A4F8625038BDB4F95C0000F000
:100910002BFC022308E0B4F85C00404200B200F077
:1009200023FC0023A4F85C3084F85B3038BD00BFA2
:100930005004002010B50F4BBFF35F8F03F152013D
:100940004FF00104D1E84F2FC1E84E4FBEF1000F28
:10095000F8D1BFF35F8F12F0FF0F09D1596D01601D
:10096000BFF35F8F83F85220BFF35F8F012010BD6C
:10097000002010BD5004002010B5114BBFF35F8F55
:1009800003F152024FF00104D2E84F1FC2E84E4F6C
:10099000BEF1000FF8D1BFF35F8F11F0FF0F0CD144
:1009A000B3F854201044A3F85400BFF35F8F83F8CA
:1009B0005210BFF35F8F012010BD002010BD00BF9B
:1009C000500400200B4BBFF35F8F002283F85A20A6
:1009D0004FF6FF71BFF35F8FA3F85420A3F85610B2
:1009E000BFF35F8F83F85220BFF35F8F024800F0A0
:1009F0005DBB00BF500400205D080000034BBFF347
:100A00005F8F93F85A00BFF35F8F70475004002048
:100A1000044BBFF35F8F002283F85A20BFF35F8F30
:100A2000704700BF50040020002808B505DA404296
:100A3000C0B2FFF7F9FE404203E005D0C0B2FFF7B5
:100A4000F3FE024BA3F85C0008BD00BF5004002079
:100A5000F8B5334C064600F07BFBB4F858309E42A4
:100A600035BFC3F50065F31AAD199DB2074638BF0F
:100A7000ADB200F075FB94F86610294AB4F8643002
:100A800069B392F8671051B3FB1A10FB03F000B280
:100A9000002824DB92F85E302DB290FBF5F5A8B269
:100AA00043B11178B2F8603002EB410149885B1A1A
:100AB000A2F86030237804EB430228215080B4F878
:100AC000602001331544B3FBF1F201FB1233A4F8AB
:100AD000605023701BB9124B012283F85E20EFF3A4
:100AE000108372B6BFF35F8FBFF34F8FBFF36F8F6B
:100AF000A4F8586083F31088BFF35F8FBFF34F8F64
:100B0000BFF36F8FBFF35F8FBFF34F8FBFF36F8F55
:100B1000012384F86630A4F8647084F86730F8BD67
:100B200050040020194B1B681A68002210B51A6087
:100B3000596817495A600A60164A40201070DA68EE
:100B40002822DA6058695A6103F104725432520162
:100B500001205060DA68D86822F0C002DA606920AB
:100B6000DA68D8605A695C6922F0C0025A615A6931
:100B7000094A58614FF480201060084A0420106030
:100B800007220A601A6808221A6010BDE8290000CE
:100B90000C8000401F800040A0A0044000E100E065
:100BA0006B4B6C4A2DE9F04101241C606A4B6B4F82
:100BB0001A606B4B3B606B4BDFF8FC81FF261E60BD
:100BC000694BC8F800601C60C3F88040674B002583
:100BD00080221A602846DD605D6101F05FFA2046E0
:100BE00001F05CFA022001F059FA614B61491B687F
:100BF0000E7008209A8B98831A6819601A695E4AE9
:100C00001A619A689C60DA8B4FF4B452DA83DE8AF8
:100C1000DA829E8F9887986A9C62D88FDA87D88EFE
:100C2000DA86B3F85C00554E0A20A3F85C00186C15
:100C30001964196DC3F85080996C9C64B3F85E1008
:100C4000A3F85E20B3F856104D48A3F856204D493E
:100C50004D4B35700D7005701C604C4B1B681A684D
:100C60001D609A6841229A60DA682822DA60D3F817
:100C700014E05A61D3F810E04FF00D0EC3F810E005
:100C8000D3F818E09A61424B424A1C604FF470233B
:100C90003B60414B1A60B2233370A2230370A3233D
:100CA0000B7000F0E9F9013823463C4C042821D8A8
:100CB000DFE800F0080F031A1400022323604FF04E
:100CC000FF3318E06FF00103022284E80C000123D7
:100CD00012E0236063606FF001030DE023604FF0CA
:100CE000FF336360022307E00223636025604FF057
:100CF000FF3301E02560636029482A49A36024226C
:100D000001F0B4FC0023264A995C082984BF002125
:100D100099540933242BF6D1234B01221A60234B1B
:100D20004FF472621A60224A4FF4807111602149B7
:100D300040F65F120A608A6040F6A1721A600023D2
:100D4000BFF35F8F84F83030BFF35F8FBDE8F08171
:100D5000300790420001FFFF80C0044084C004407F
:100D60000000FFFFD4F00F40840790420080004055
:100D7000F42900000080FF1FC4F00F400010024063
:100D8000011002400210024060069042E829000073
:100D9000280790420003010048A00440B804002046
:100DA000C404002030000014D807904200600340C3
:100DB00008E100E004600340C8F00F40084B022245
:100DC0001A70084B1A68136800231360064A04213E
:100DD0001160064A1360064B01221A60704700BF7B
:100DE0001F800040E829000080E100E0C0F00F40D3
:100DF00040006C42054A00231360054ABFF35F8F31
:100E000082F83030BFF35F8F704700BF18006C422C
:100E1000B80400202DE9F04F5E49BFF35F8F91B019
:100E200001F130020124D2E84F3FC2E8454F002DC6
:100E3000F9D1BFF35F8FDBB2002B40F0A78000F148
:100E400061424068019002F5801248688968DFF8C5
:100E50004C8105905201451894606D4206910793AC
:100E60004C4903EBC30601F10C0016F800C0BCF1BD
:100E7000000F76D00868019913F00107084408BFF5
:100E8000B130002161450ED2DFF81CE18C197444A9
:100E900094F801E0B4240EFB04040DF1200E4EF88A
:100EA00021400131EEE7089917B1B431E81C01E0A7
:100EB000B439E81E0790089888424ED008F1080718
:100EC000002605AC002054F826A00DF1200959F8A1
:100ED00020E09EF800B004F801BDD64449F820E0B7
:100EE00001306045F1D30398DDF8109080EA1914C1
:100EF00004F00F3489EA041984EA000E89EA99445F
:100F000043F23330204080EA090989EA804043F205
:100F100033348EEA9E4909EA040484EA0E0E8EEA0E
:100F2000844484EA542980EA502E0EF0551E09F0BC
:100F3000551989EA04048EEA0000013684EA49243E
:100F400080EA4E20032E47F8084C47F8040C07F1BE
:100F50000807B6D108F11808ADE70133042B7FF478
:100F60007FAF002393600C4B1B681A6A0B4A1A620E
:100F70009A8C01229A84DA6A094ADA621A6B094A5F
:100F80001A6311B0BDE8F04FFFF7CCBD11B0BDE85A
:100F9000F08F00BFB8040020F42900000480FF1F78
:100FA00080E9FFFFC0F00F40C40400200E4BBFF3E8
:100FB0005F8F4FF00101D3E84F2FC3E8401F002897
:100FC000F9D1BFF35F8FD2B26AB9084B1B68196AB7
:100FD00007491962998C9A84D96ADA621A6B054AB0
:100FE0001A63FFF79FBD7047E8040020F429000052
:100FF0000080FF1FC8F00F4038B51548154D01F0AF
:101000001FFB154B1B681B1A584258412870E8B14A
:10101000124801F0E9FA04466870114801F0E4FA58
:10102000A870001B441CC4EB0414A400A4B20D4817
:10103000AC8001F0D9FA003018BF0120A87110B1BE
:1010400004F5F074AC80FFF7F1FA288138BD00BFD9
:1010500000000014EA0400206C29000022000014A3
:101060002300001424000014014B9888704700BF2F
:10107000EA04002003207047034B187810B103489E
:1010800001F0B2BA704700BFEA040020210000144A
:10109000044B9879044B03F10802002814BF18464A
:1010A00010467047EA0400207029000010B504467D
:1010B00000F0E8FF0D4B0E491C600E4B1B68002230
:1010C0009A6010200122DA6008600B491960022141
:1010D000996003219960094B1A60A3F5C0731A60E7
:1010E000074B4FF480721A6010BD00BFF40400205B
:1010F00008E100E0E4290000FF4B1D008812FE43D8
:1011000008B00440094A0A491268012310B5D360A7
:10111000084A13600A6842F004020A60064A12682C
:101120001C4602B19047054B1C6010BDE42900002D
:1011300084F00F408810FE43F40400200811FE43A1
:10114000024B1B68186880B2704700BFE42900009A
:10115000024B1B68586880B2704700BFE42900004A
:101160004FF0FF307047FFFF024B1A6813681844B6
:1011700010607047E4290000024B00221A705A7078
:10118000704700BFF80400207047FFFF2DE9F843C7
:10119000FFF7C1FA1E4D044660B92B781C48022B9C
:1011A0002AD142780A26013292FBF6F106FB11227F
:1011B000427021E0022303704768FFF755FF69780A
:1011C00095F800803C2301EB410CB0FBF3F00022CA
:1011D000C0B28242E1D2B42303FB02C30E463B2ECF
:1011E00008D807EB080E4FF010090EF803900A36E6
:1011F0001E33F4E70132ECE70133032293FBF2F2F2
:1012000002EB42029B1A2B702046BDE8F88300BF18
:10121000F804002000487047A429000038B5074CA6
:10122000236843B102225D681A706560FFF7FEF91A
:101230002844A06038BD6360A36038BDFC04002072
:1012400010B5054C236813B9FFF70CFA2060BDE810
:101250001040FFF7E3BF00BFFC04002010B5074CAF
:10126000012000F091FB206818B1FFF71FFA00235E
:10127000236000236360A36010BD00BFFC04002056
:10128000004870470005002010B5084C2068FFF7A3
:101290006BFA30B1FFF7E6F92060BDE81040FFF7C8
:1012A000BDBFBDE81040FFF7D9BF00BFFC04002060
:1012B00038B5094D2C68001B84B25CB12246012070
:1012C000296800F0C5FF2B68241A03442B60A4B2E0
:1012D0000028F2D138BD00BF08050020214A13685C
:1012E00043F4A02310B513601F4B02221A601F4B5A
:1012F00001221A601E4B4FF400721A601D4B1A78BF
:1013000042F080021A701A781206FCD400F0E0FE57
:1013100000F0D0FE184A031203F0FE031370174BBF
:10132000C0F307421A70000E154A1871FF2313709C
:10133000137200F0A5FA134B01221A700024102238
:1013400083F86C40204683F8742000F0D9FA0E4BE5
:1013500011221A7003F8704C0C4B4FF400721A6093
:1013600010BD00BF0480044048800440C80690427D
:1013700088E100E00C2107409C200740B020074096
:1013800080200740942007408420074008E100E0C7
:1013900008B500F0C5FA031F5842584108BDFFFFC9
:1013A00008B5FFF74DFFFFF76BFF044B02681A60AB
:1013B0004068BDE80840FFF77BBF00BF080500207C
:1013C000F8B5B44C23785E070FD5B34B1A785507A0
:1013D0000BD504221A7093F8240020331B7843EABB
:1013E0000020C0F30A00FFF733FB2378A94AD8078F
:1013F00015D5A94B1978C90711D51921197013787A
:1014000043F01C03137000F07FFE002000F096FAFA
:10141000002000F001FE10B1022000F071FA2378E4
:101420009C499E4D13F0100F16D09B4A1378DF068F
:1014300012D50B7803F0E3030B701823137092F8A6
:10144000803043F0800382F880302B7843F0200313
:101450002B70052000F054FA2A78904B960625D57B
:101460001A78D50722D51A7802F0DE021A708C4A53
:10147000137803F07F031370874B10221A702378C0
:1014800043F01C03237000F0BBFD002801DD0420A5
:101490000AE000F04BFA08B1032005E000F0B0FDCF
:1014A00008B9022000E0012000F02AFA237818078A
:1014B00040F19581784D2B78190740F1908100F02B
:1014C000F7F9784B1C7808232B7000F0F3FDE4B299
:1014D000A60836B200EBC60507462409284600F0E8
:1014E000FFFD002C40F03F810D2840F09E802046FB
:1014F00000F0ECFE6A686C4D13686B605368AB607B
:101500002B7B13F0FD0F03D005F10C0000F08FFBD7
:1015100000F0F8FD0138C4B2FF2C4FF0000008D0F5
:101520002246012100F0CAFD013C00230360E4B221
:10153000F2E700F0DFFE5D4A5B4C137803F0DF0357
:101540001370211D04F10C0000F066FB04F10C0087
:1015500000F07CFB01210A46002000F017FE00206D
:101560000146012200F012FE2B7B032B2ED1268B8D
:101570006369A3623344E36223690020DC8800F0DE
:10158000FFF9A6423DBFB6FBF0F300FB136080B24B
:1015900000203CBFB0FA80F0400985F8300000F030
:1015A000B1FD2C8B0646002E00F0B780013EF6B24E
:1015B000002C00F0B28022460020A96A00F0A8FEAC
:1015C000AB6A241A0344AB62A4B2ECE7042B19D132
:1015D0006169228BA1628B18E362002000F038FE63
:1015E000EA6AA96A304B914201D1AA62F7E038B1A8
:1015F00001449142F9D0521A9962002092B2EDE76B
:101600009962ECE0062B08D10025284629462A4697
:10161000A562E56200F07CFE9FE0002000F0B4F9D6
:1016200004F10C0000F003FB77E0092840D11E4EC6
:10163000337B032B374621D1284600F055FD014668
:1016400006F10C0000F0FBFAB16AF26A914208D090
:10165000521A204692B200F05BFEB36A1844B062A0
:10166000BDE096F83030002B00F0B98020462146CE
:10167000224600F04DFE86F83040B0E0062B40F0E8
:10168000AE80336A13B106F10C00984700233B7318
:10169000A5E000BF84200740802007400C210740C0
:1016A00000210740902007400805002094200740B3
:1016B000012840F0948020464B4C00F007FE237B2D
:1016C000042B39D1238B668B28469E1B00F00CFD22
:1016D000B6B2B04228BF304687B2E06A6968801B64
:1016E000884202D03A4601F083F83F4D394605F171
:1016F0000C0000F0A4FA237B062B10D101210A462E
:10170000002000F043FD00200146024600F000FEEC
:1017100000200146024600F039FD00201EE0A96AC3
:10172000EA6A91425BD0521A002092B200F090FD1A
:10173000AB6A1844A86252E0052BEED157F8363058
:101740005A064CD5236A0BB12848984700252846ED
:1017500029462A46257300F019FD2846014602460F
:1017600000F076FD3BE0012C39D1012837D100F0A3
:10177000ADFDFFF785FD036807461BB3284600F063
:10178000B3FC064697E81100241AA4B26968B44273
:1017900028BF34468842A4B202D0224601F028F87D
:1017A0003B681C443C60012000F016FD104B79683A
:1017B0001B783A6880B28642DBB206D29B0601D41F
:1017C000914204D0FFF74AFD09E0914204D1FFF7AE
:1017D0005BFD054B3A681A607868FFF769FD044BBA
:1017E000FF221A70F8BD00BF080500201405002074
:1017F000882007401A4A012830B510700DD002D356
:1018000002281AD030BD174A20231360164A1268E6
:1018100000219161154A136030BD154B20241C60D6
:10182000114B1B6800219961D86112480460517006
:10183000114A1A6102229A610FE00D4B20241C60AC
:10184000094B1B68002101259961DD61094D9170EB
:101850002C605170094A1A61986103229A6130BD67
:101860003905002088E100E0E429000088F00F40FD
:1018700084F00F4008E100E0FF356E01FF9E240078
:10188000094A08B50123136002F1B77202F6683203
:101890001360064B4FF480721A6000F0F3FB0020D7
:1018A000BDE80840FFF7A6BF2C07904214B00440E3
:1018B000014B01229A707047390500200C4B1B68C0
:1018C0000122DA610B4B5A781AB10B4920200860CB
:1018D00009E01978012901D0997821B10749202020
:1018E00008600021997082F001025A70704700BFB1
:1018F000E42900003905002084F00F4088F00F40F3
:10190000064B187038B1042803D9052803D10120EB
:1019100002E0022000E00020FFF76CBF3C05002041
:10192000014B1878704700BF3C050020024B187827
:1019300000F07F00704700BF98200740024B00F086
:101940007F001870704700BF9820074010B504460C
:10195000002120460A4600F07BFC0028F8D110BD8B
:1019600010B502B2054B0021044603F8221000F026
:1019700025FC2046BDE8104000F058BCC0200740C0
:1019800008B500F029FC08BD084B13F8201011F031
:101990000C0F024614BF0120002028B113F82210BA
:1019A00041F0020103F82210704700BFC020074039
:1019B000084B13F8201011F00C0F024614BF012041
:1019C000002028B113F8221001F0FD0103F82210C5
:1019D000704700BFC0200740064A12F8203013F0BD
:1019E0000C0316BF12F820001846C0F3400000F0A8
:1019F00001007047C020074010B502B2094B13F830
:101A0000223003F00803044603F0FF020BB9012162
:101A100004E000F06FFC002120460A46BDE81040BB
:101A200000F0B4BBC0200740F8B505460078FFF7CA
:101A300097FF2B6823F07F4323F0FF03B3F5403F6C
:101A40004CD06C78AB7814F1FF3418BF0124022B12
:101A500006D0032B07D0012B09D144F0080404E081
:101A600044F0040401E044F01C04E4B201E024B3B7
:101A700001242878297900F0A1FB0646F0B1AB7863
:101A80009A0704D4AB78DB0711D4012616E000F0E6
:101A900039FB0138C7B2FF2FF4D03A46287801212C
:101AA00000F00CFB013F00230360FFB2F3E728784E
:101AB00000F09CFB3040C6B200E026462A78094B75
:101AC00003F8224066B12878FFF796FFAB680BB1A8
:101AD000984705E02878FFF739FF01E00D24C8E7B3
:101AE0003046F8BDC02007408389C2899A4204BFAE
:101AF00006230370704710B50446806818B100F0E3
:101B00006FFE0023A36010BD10B5436804465888DB
:101B100040B200F081FA63685B880BB9022000E0F4
:101B20000420BDE81040FFF7EBBE10B543685C88A9
:101B3000E4B22046FFF702FF24B10320BDE81040C5
:101B4000FFF7DEBE10BDFFFF38B5044608460D4660
:101B500000F03EFEA06040B1032323700023E38128
:101B6000024B2361024BA581A36138BDFD1B000020
:101B7000F71A000010B50446806858B1636806493A
:101B80009B88A289194400F08FFDA06800F028FE10
:101B90000023A36010BD00BF0000001410B5054C69
:101BA000206828B1FEF782FD002323606360238153
:101BB00010BD00BF400500208289C389934270B5E3
:101BC000064618D10C4C258962681D44ADB21344F9
:101BD00025816360FEF72AFD85420AD12068FEF761
:101BE000C3FD10B92068FEF761FD00232360636028
:101BF00023810623337070BD40050020C28983898C
:101C00009A4210B5044606D1806800F0E9FD002331
:101C1000A3600523237010BD00234361036183612A
:101C200083608381C38101230370416070478369AE
:101C300010B5044603B198470223237010BDC28932
:101C400003691144C18103B1184770472DE9FF4171
:101C500043681A7812F06001044603D0402900F06E
:101C6000DB80C9E15978092900F2C681DFE811F06B
:101C70000A00AA00C4019900C4012B005500C40148
:101C80003A00490020460221FFF75EFF002800F0DD
:101C9000B38162681378812B03D0822B05D0802B0F
:101CA0000BD1A36800221A80A6E19088A46800F0F6
:101CB0000F00FFF791FE20809EE1204604B0BDE8B2
:101CC000F041FFF7B4BF002A40F096819A88002ABD
:101CD00040F09281DB88002B40F08E810623237038
:101CE000B44B18E0802A40F0878120460121FFF79D
:101CF0002BFF002800F08081A46800F081F920709B
:101D00007AE1588840B200F081F9002800F074812F
:101D100006232370A84B63616EE1802A40F06C813A
:101D2000184600F089FB0646002800F065816368CC
:101D3000DD8800F078FBA84228BF284685B22946F6
:101D40002046FFF701FF804610B3374605B3022D4A
:101D50002C4628BF02243146224640462D1B00F067
:101D600047FDA044ACB23578B0787268023DEDB260
:101D7000A54228BF254641462B46FEF727FCB668FC
:101D8000A8443846651BADB200F02AFD002EDCD118
:101D9000002E00F03181B468304600F021FD264667
:101DA000F6E7022A40F028815A88002A40F0248170
:101DB000988800F00F00FFF7E7FD002800F01C8175
:101DC0000623D8E0022A40F017815A88002A40F002
:101DD00013819D8805F00F052846FFF70DFE00F0E2
:101DE0000FF900F045F998B10378AB4210D940687B
:101DF0000190019A05EB450302EB83030193986878
:101E00000290029B0BB1984702E02846FFF79EFD27
:101E10002846FFF7CDFDD0E7402A5DD15A78012A48
:101E200024D1664DFEF702FC2F68064647B9FEF73F
:101E300019FC286020B10223037043682F816B6076
:101E40002A685E4B002A00F0D7805A681B89A2607E
:101E5000F61A6368DB88B6B29E4228BF1E4600238E
:101E6000E381574B2361A681564B17E0032A18D113
:101E7000DD889B882B44B3F5006F284600F3BC80B7
:101E800000F0A6FCA060002800F0B6800023E381EB
:101E90004D4B23614D4B63614D4BA581A3610423E1
:101EA00069E0062A40F0A8805A8815B205F11403AB
:101EB000282593FBF5F505EB450000EBC00002EB90
:101EC000C00040B2FEF7B0FD28B2FEF755FD002875
:101ED0007FF476AF02234EE0C02A40F08D805A781E
:101EE000022A4AD1FFF7D4F80746FEF783FB63685E
:101EF0000230DD881FFA80F8454528BF4546012D90
:101F00007AD920462946FFF71FFE002874D00646DE
:101F100002AB26F8028B3868796803C3AA1E92B216
:101F200042B39DF80830FF2B24D0951E012A337050
:101F3000ADB204D106F101084FF6FF7512E09DF82D
:101F40000930737006F1020865B1AB4228BF2B4619
:101F500041469DF80A00039A1E46FEF737FBAD1B6B
:101F6000B044ADB257F8080F796802AB03C34646D8
:101F70002A46D5E7032323703EE0042A2CD19D880E
:101F8000DC88B5F5006F37D8B4F5006F28BF4FF483
:101F900000646319B3F5006F2EDC2146FFF7D4FD12
:101FA00050B30C492246294404B0BDE8F04100F08A
:101FB0005DBB00BF2B1B0000091B0000400500207B
:101FC000B91B00009D1B0000E91A0000751B0000F2
:101FD000F71A000000000014052A0DD1D988042941
:101FE0000AD1FFF7B1FD38B1A4682046FEF7A2FC84
:101FF00010B94FF6FF73638004B0BDE8F08100BFF5
:10200000014B93F90000704701000020C0B2012885
:102010008CBF0020012070477FB5C3B2012B06465C
:102020001AD8114B03EBC00213F83030546803EB9D
:10203000430304EB83050120AC420BD050B1206870
:10204000616801AB03C3A068186001A8FFF7ECFC4E
:102050000C34F1E7034600E0002303F001000BB16C
:10206000024B1E7004B070BDB029000001000020BA
:10207000C3B2012B9ABF024B03EBC0000020704794
:10208000B0290000034B01221A60034B00221A60A2
:10209000704700BFDC0790420070034008B5400164
:1020A00000F180400021202200F5104000F0ABFB41
:1020B00008BDFFFF004870470006002042EA4102C9
:1020C00042EA8002014800EBC2007047000600208F
:1020D00002480021402200F096BB00BF000600200D
:1020E0000068C0F3830070474088C0F30900704760
:1020F00001F00101890141F08801C0F3090041EAC2
:102100000040704702207047064A1378DBB243F064
:10211000020111700449002003F0FD0308641370EC
:10212000704700BF9420074000060020034B41EA9F
:1021300040015B0153F82100C0B27047400610A176
:1021400070B50A4D2B18002193F84440013CE4B2CD
:10215000064683F84440FFF7E9FF204400F0010001
:1021600040EA8600002345F8303070BD00060020AC
:10217000054B41EA40015B0153F82100C0B280F0F9
:10218000010243F821207047400610A1034B41EAA9
:1021900040015B0143F82120704700BF480610A1B1
:1021A000054B41EA40015B0153F82100C0B280F0C9
:1021B000010243F821207047480610A10128034678
:1021C0008CBF0020012018B1024A134483F84C1040
:1021D000704700BF0006002001289DBF024BC018B9
:1021E00090F84C000020704700060020012838B508
:1021F00005460FD80B4B034493F84C4064B1600084
:1022000000F0E6FA084B43F8350003EBC50304443D
:102210005C6002E0002000E02046003018BF012092
:1022200038BD00BF000600206006002038B5074C0E
:10223000054654F8300038B100F0D2FA002344F8D3
:10224000353004EBC504636038BD00BF6006002074
:102250002DE9F0471B4E3718054697F84440012CEE
:10226000894692462AD80021FFF760FF2044631C6C
:1022700000F0010444EA850887F8443006EBC80101
:1022800097F84C30B9F1000F06D0534528BF53469C
:10229000C1F804901C4606E004EB45040A4A52F8D3
:1022A00024204A609CB200212846FFF779FF0146AE
:1022B0002046FFF71DFF46F8380000E000242046C6
:1022C000BDE8F087000600206006002070B5084CCD
:1022D000044494F844502E1C18BF01262EB100214E
:1022E000013DFFF745FF84F84450304670BD00BF04
:1022F0000006002010B50446044B234493F84430F4
:102300001BB12046FFF71CFFF6E710BD00060020BA
:102310002DE9F8438946012106461446FFF706FFDA
:1023200040EA8600114F40F0020507EBC50857F858
:1023300035301B0616D4BB19304693F84C200121CA
:10234000944228BF1446FFF72BFF01462046FFF7B3
:10235000CFFE012147F83500C8F804903046FFF75A
:1023600007FF00E000242046BDE8F88300060020B7
:10237000013838B50D46042837D8DFE800F00334BB
:1023800005343200102038BD012A0ED006D3022AAF
:102390002BD1084600F03EF92C4613E00B461846B8
:1023A00002330288002AFAD10AE00B880846013B72
:1023B0009BB24FF6FD72934202D830F8023FF6E727
:1023C000401B0BE0013880B24FF6FD73984204D8F1
:1023D0000234204600F01EF9F4E7601B00F0FE0016
:1023E00038BD052038BD072038BD002038BD08B5F0
:1023F000FFF7BEFF0230C0B208BDF8B507460C209B
:102400000D46164600F0E4F9044650B13846294618
:102410003246FFF7ECFF002320706770A6706560FE
:10242000A3602046F8BD002320B1027880681344E1
:102430009BB2F9E71846704770B543880146180A01
:102440000228DAB220D0032806D0012844D1002A7D
:1024500042D12349024613E012B9224901220FE07A
:10246000042A39D8898840F20943994234D11C4B57
:10247000013A03F1140103EBC20351F832101A7E42
:10248000BDE87040FFF7B9BF32BB174E174D336838
:102490002B60B388AB80B379AB712946FFF7ADFFF2
:1024A000F11D044601220420FFF7A7FF23469A6886
:1024B0000AB11346FBE798600D4905200122FFF79A
:1024C0009CFF23469A680AB11346FBE798602046B2
:1024D000FFF7A9FF288000E00024204670BD00BF60
:1024E000F8290000082A00002C2A00004E060020CF
:1024F0003A2A000008B50B4C2368580301D5FEF7B3
:102500005FFF2368590501D500F00EF823681A050E
:1025100001D500F009F82368DB04ECD500F004F8DD
:10252000E9E700BF3480044008B5FFF7E3FFFFFF91
:10253000014B10221A807047002005407047FFFFB2
:10254000024A1368184410601846704704000020BF
:10255000024B1B78DB07FBD5704700BF0100024030
:102560007FB51C4B6A4603F110066D461868596822
:10257000144603C40833B3422246F7D1164B1A78E7
:1025800012F0020F1E461CD0144A137813F0700389
:1025900018BF1370124B80221A70002203F8032C0C
:1025A00033221A710322DA7072B60C4C45F0010323
:1025B0002046984762B6237813F0700301D0237049
:1025C00005E0084B3278D20701D4013BFAD104B0C0
:1025D00070BD00BFC82A0000010002400000024098
:1025E00007000240410D030010B500F16C44B4F542
:1025F000006F0AD2064B1B78DB0701D4FFF7B0FF50
:1026000004F1A0542078C0B210BD002010BD00BF5E
:102610000100024010B540F2FE7300F16C449C4290
:1026200009D8064B1B78DB0701D4FFF799FF04F1AB
:10263000A054208810BD002010BD00BF0100024042
:1026400010B540F2FC7300F16C449C4209D8064B73
:102650001B78DB0701D4FFF783FF04F1A054206847
:1026600010BD002010BD00BF0100024070B50D4B31
:102670001B7801F16C44DB07054604EB020601D42C
:10268000FFF76EFFB6F5006F28BF4FF40066681EB7
:10269000B44206D204F1A05301341B7800F8013F84
:1026A000F6E770BD01000240F8B501F16C46B6F5E1
:1026B000006F054614465FD2304B1B78DB0701D410
:1026C000FFF74EFFB4F5006F28BF4FF40064A31965
:1026D000B3F5006F24D3C6F5006421E016F00303C0
:1026E000287806F1A0511ED1032C1ED9AA786B7848
:1026F000120442EA0323EA78034343EA02630A68C6
:102700009A4205F1040708D01D48027812F07002C1
:1027100018BF02700B60FFF71BFF0436043C3D46F8
:10272000002CDBD128E0022B15D1012C13D06A78C4
:1027300040EA02230A889A4205F1020708D01048AD
:10274000027812F0700218BF02700B80FFF700FFD2
:102750000236023CE3E70B78834205F1010508D01D
:10276000074F3A7812F0700218BF3A700870FFF7FE
:10277000EFFE0136013CD3E7F8BD00BF0100024087
:102780000000024070B50E4B0E4CE41AA410002558
:102790001E46A54204D056F8253098470135F8E783
:1027A00000F09CF9084C094BE41AA41000251E46C1
:1027B000A54204D056F8253098470135F8E770BD9A
:1027C000E82A0000E82A0000EC2A0000E82A0000BD
:1027D000024B0146186800F063B800BF6800002093
:1027E000024B0146186800F017B800BF68000020CF
:1027F00010B5431E0A44914204D011F8014B03F86E
:10280000014FF8E710BD02440346934202D003F89B
:10281000011BFAE77047FFFF30B500293DD051F8A2
:10282000042C0B1F1D49002AB8BF9B180A680C46D0
:1028300012B95A600B6030BD93420DD21968581816
:10284000904201BF5A5852181A6042685A60236079
:1028500030BD994203D80A4651680029F9D114685D
:1028600015199D420AD11B682344D0188842136071
:1028700013D10868034413604B680DE002D90C23A0
:10288000036030BD1C681819884204BF0868496895
:10289000596004BF00191860536030BD5C06002009
:1028A00070B5CC1C24F0030408340C2C38BF0C2465
:1028B000002C064603DA0C233360002070BD8C42E6
:1028C000F9D3204A136810461946A1B10A68121BB1
:1028D0000ED40B2A03D90A608B188C501FE08B4250
:1028E0000DBF5A684A685A60026018BF0B4616E06E
:1028F0000B464968E9E7144D2B681BB9304600F0D8
:1029000025F828603046214600F020F8421C034696
:10291000D1D0C51C25F0030585420AD11C6003F106
:102920000B001A1D20F00700821A0AD0514299505C
:1029300070BD3046E91A00F009F80130BBD02B46D3
:10294000ECE770BD5C0600205806002038B5064C48
:102950000023054608462360FFF7F2FD431C02D121
:10296000236803B12B6038BD700600204900430086
:1029700002020100A229000003010100A1290000B8
:1029800001010100A029000004020000F20400205F
:1029900002020000EB040020FF0003000000000022
:1029A00001014F5679110000891100008D110000BE
:1029B00001000000D829000002000000C02900002A
:1029C00000000300400000000000000001020100C0
:1029D00040000000A11300000000030040000000C0
:1029E000000000000071034000800B400090034095
:1029F0000080034000900040000200000040E31C03
:102A0000020020030102040109040000A42A0000BE
:102A100001000000682A000001000000402A0000B8
:102A2000010000000000001402000000000001018D
:102A3000008019000001FF000003010240000000B7
:102A400053007400650061006D00730068006F0042
:102A5000760065006C00200064006900730070005F
:102A60006C006100790000004900630065004300CC
:102A700075006200650020006500760065006E004C
:102A80007400200064006900730070006C00610035
:102A9000790020007300650067006D0065006E001E
:102AA0007400000055006E00690076006500720039
:102AB000730069007400650069007400200047001D
:102AC00065006E00740000006FF07F0303700378F0
:102AD00013F0800FFBD070474300FFFFF8B500BF35
:0C2AE000F8BC08BC9E4670477D04000056
:042AEC00F8B500BF7A
:102AF00018FF000074060020000000000000000025
:102B000000000000000000000000000000000000C5
:102B10000000000000000000D82A000000000000B3
:102B200000000000000000000000000000000000A5
:102B30000000000000000000000000000000000095
:102B40000000000000000000000000000000000085
:0C2B500000000000000000000800002051
:102E000000000000000000000000000000000000C2
:102E100000000000000000000000000000000000B2
:102E200000000000000000000000000000000000A2
:102E30000000000000000000000000000000000092
:102E40000000000000000000000000000000000082
:102E50000000000000000000000000000000000072
:102E60000000000000000000000000000000000062
:102E70000000000000000000000000000000000052
:102E80000000000000000000000000000000000042
:102E90000000000000000000000000000000000032
:102EA0000000000000000000000000000000000022
:102EB0000000000000000000000000000000000012
:102EC0000000000000000000000000000000000002
:102ED00000000000000000000000000000000000F2
:102EE00000000000000000000000000000000000E2
:102EF00000000000000000000000000000000000D2
:102F000000000000000000000000000000000000C1
:102F100000000000000000000000000000000000B1
:102F200000000000000000000000000000000000A1
:102F30000000000000000000000000000000000091
:102F40000000000000000000000000000000000081
:102F50000000000000000000000000000000000071
:102F60000000000000000000000000000000000061
:102F70000000000000000000000000000000000051
:102F80000000000000000000000000000000000041
:102F90000000000000000000000000000000000031
:102FA0000000000000000000000000000000000021
:0C2FB00000000000000000000000000015
:00000001FF
