:1000000000800020BD01000009270000D526000067
:10001000D5260000D5260000D5260000D5260000F4
:10002000D5260000D5260000D526000009270000AF
:1000300009270000D5260000092700000927000035
:100040000927000009270000C90E00000927000049
:1000500009270000092700000927000009270000E0
:1000600009270000092700000927000009270000D0
:1000700009270000092700000927000009270000C0
:1000800009270000092700000927000009270000B0
:1000900009270000092700000927000009270000A0
:1000A0000927000009270000092700000927000090
:1000B0000927000009270000092700000927000080
:1000C0000927000009270000092700000927000070
:1000D0000927000009270000092700000927000060
:1000E0000927000009270000092700000927000050
:1000F0000927000009270000092700000927000040
:10010000092700000927000009270000092700002F
:10011000092700000927000009270000092700001F
:10012000092700000927000009270000092700000F
:1001300009270000092700000927000009270000FF
:1001400009270000092700000927000009270000EF
:1001500001130000A11A0000092700000927000070
:100160000D0F0000B9150000092700000927000045
:1001700009270000092700000927000009270000BF
:1001800009270000092700000927000009270000AF
:10019000092700000927000009270000092700009F
:1001A000092700000927000009270000092700008F
:1001B000092700000927000009270000444B4CF2E2
:1001C000205210B51A804DF628121A8000BF00BFC9
:1001D00002F09EFA3F4B4FF010621A603E4A9A605E
:1001E0003E4ADA603E4A136813F4807301BF3D490A
:1001F0000B604FF4A85313603B4B1A78110748BFAC
:100200001A783A4944BF42F008021A70384B2A2241
:100210001A70384A384B8B4251D3384B384A002138
:10022000934251D3374A384C0023114654F82300E7
:1002300042F8230001336F2BF8D1344B344A80202D
:1002400003F8010B9342FBD1324B1960324B0A2267
:100250001A70A3F5805324225A70A0221A709A793A
:100260009207FCD59A79D406FCD42C4B19469A797E
:1002700002F00C02082AFAD103221A7140225A71A4
:100280008B799806FCD5254B9A795206FCD5244AE1
:10029000244911600221516020221A701F4A93796B
:1002A00003F00C030C2BFAD11F4B204A1A6062B6E4
:1002B00002F048FB02F032FA00F0E0F8FEE752F8F4
:1002C000040F43F8040BA6E743F8041BA8E700BF9C
:1002D0000E20054030800440823F04000100002BC6
:1002E00010D0034014D0034002D007406C0000201F
:1002F00000E00740D42C0000000000200004002093
:1003000074060020000200200000000000E400E06D
:100310005FE400E008ED00E00050064000400640C9
:10032000448004400000131104800440C010050004
:10033000FFFFFFFFFFFFFFFFFFFFFFFFFFFFFFFFCD
:10034000FFFFFFFFFFFFFFFFFFFFFFFFFFFFFFFFBD
:10035000FFFFFFFFFFFFFFFFFFFFFFFFFFFFFFFFAD
:10036000FFFFFFFFFFFFFFFFFFFFFFFFFFFFFFFF9D
:10037000FFFFFFFFFFFFFFFFFFFFFFFFFFFFFFFF8D
:10038000FFFFFFFFFFFFFFFFFFFFFFFFFFFFFFFF7D
:10039000FFFFFFFFFFFFFFFFFFFFFFFFFFFFFFFF6D
:1003A000FFFFFFFFFFFFFFFFFFFFFFFFFFFFFFFF5D
:1003B000FFFFFFFFFFFFFFFFFFFFFFFFFFFFFFFF4D
:1003C000FFFFFFFFFFFFFFFFFFFFFFFFFFFFFFFF3D
:1003D000FFFFFFFFFFFFFFFFFFFFFFFFFFFFFFFF2D
:1003E000FFFFFFFFFFFFFFFFFFFFFFFFFFFFFFFF1D
:1003F000FFFFFFFFFFFFFFFFFFFFFFFFFFFFFFFF0D
:10040000FFFFFFFFFFFFFFFFFFFFFFFFDEF9FFFF23
:1004100010B5054C237833B9044B13B10448AFF33E
:1004200000800123237010BD0004002000000000A4
:10043000D82C00000C4B43B10C480D4910B5AFF35C
:1004400000800C48036823B910BD0A48036833B91B
:100450007047094B002BF7D0BDE810401847064BFA
:10046000002BF5D0184700BF00000000D82C00007A
:10047000040400206C0000200000000070B500F0B3
:10048000A5FE00F0C3F800F07FFB00F051FE01F084
:1004900021F800F06BFA3F4C3F4E00F07FFA002845
:1004A00047D000F075F9054648B143683BB100F00C
:1004B0003DFD2B789A0702D5284600F0D9F825781B
:1004C0002378EDB2002B36D13378002B4DD10125A6
:1004D0002378AB4217D063682BB163685B6813B1B4
:1004E00063685B68984725702378022B3FD100F042
:1004F0008DFF60606368002B3BD063681B6813B19D
:1005000063681B689847636883B100F0FBF868B9BB
:1005100063689B689847054640B100F013F928B915
:100520002B789B0702D5284600F0A2F800F040FA8D
:10053000B3E730BFB1E72378022B05D13378002B26
:10054000C5D0013B3370C3E72378012B07D0237854
:10055000032BBDD101F018F80028B8D0B8E701F09E
:1005600013F80028F3D00325B2E70225B0E70020F6
:10057000BFE700F0AEF805460028C4D0037843F08A
:100580000203037000F0DEF80028BCD1284600F01A
:100590006FF8B8E71C04002000000020012810B507
:1005A0000C4611461A4604D003D3022806D0204632
:1005B00010BD2046BDE8104002F0F8B9204602F018
:1005C00043F9F4E7027803460020FF2A00D1704780
:1005D0005A780232104480B213F8082FF5E780F3FE
:1005E0001088BFF35F8FBFF34F8FBFF36F8FBFF3E1
:1005F0005F8FBFF34F8FBFF36F8F704710B500F061
:1006000025FE044600F01CFE604310BD38B5FFF720
:10061000F5FF45000446281802F0B8F928B1034B4D
:10062000044458602844DC60586138BD240400202C
:1006300010B5EFF3108072B6BFF35F8FBFF34F8F2B
:10064000BFF36F8F09490A7E04230224134208D1A5
:100650001BB11A430A7601EBC403FFF7C0FF18462B
:1006600010BD013CE4B25B08F0E700BF24040020A9
:100670000246EFF3108072B6BFF35F8FBFF34F8F68
:10068000BFF36F8F0B4B03F110018A4207D003F1C8
:1006900008018A4209D09A4209D0FFF7A0BF04217D
:1006A0001A7E22EA01021A76F7E70221F8E7012111
:1006B000F6E700BF2404002010B548B14468FFF7F6
:1006C0009DFF002102462046BDE8104002F079B9A6
:1006D00010BD10B5FFF7ACFF044608B1FFF7ECFF03
:1006E000204610BD80F31088BFF35F8FBFF34F8F9C
:1006F000BFF36F8FBFF35F8FBFF34F8FBFF36F8F6A
:100700007047FFFF064B19785A78914205D19878C7
:10071000DB78C01A18BF012070470020704700BF67
:1007200040040020064B19785A78914205D19878F8
:10073000DB78C31A5842584170470020704700BF09
:100740004004002038B50546EFF3108472B6BFF3BD
:100750005F8FBFF34F8FBFF36F8FFFF7D3FF78B972
:100760000A4A137802EB8301013303F001034D6061
:1007700013701BB9D37883F00103D370012300E019
:1007800000232046FFF7AEFF184638BD4004002086
:1007900070B5EFF3108672B6BFF35F8FBFF34F8F64
:1007A000BFF36F8F00250B4CFFF7BCFF60B9637878
:1007B00004EB8302013303F00103556863701BB936
:1007C000A37883F00103A3703046FFF78BFF284620
:1007D00070BD00BF4004002070B50B490E78034681
:1007E00028250020013BDBB2FF2B00D170BDF21A9F
:1007F00002F12804B4FBF5F205FB124201EB4202C0
:100800005288104480B2EDE74C04002038B5324CD9
:10081000BFF35B8F04F152034FF00101D3E84F2F78
:10082000C3E8401F0028F9D1BFF35B8F12F0FF0F20
:100830000ED1B4F854300133A4F85430B4F8583021
:10084000A4F85630BFF35B8F84F85220BFF35B8F60
:100850000123BFF35B8F84F85A30BFF35B8F94F8AA
:100860005B2022B9B4F95C200AB184F85B3094F8BB
:100870005B30012B1ED002D3022B23D038BD94F85D
:100880005E30F3B1B4F8605000F058FD2D1AB4F9A1
:100890006200ADB28300092015FB0030082390FBF5
:1008A000F3F000B200F05EFDB4F862000544A4F875
:1008B000625038BDB4F95C0000F054FD022384F8A6
:1008C0005B3038BDB4F85C00404200B200F04AFD35
:1008D0000023A4F85C30F2E74C04002010B50F4B65
:1008E000BFF35B8F03F152014FF00104D1E84F2FAA
:1008F000C1E84E4FBEF1000FF8D1BFF35B8F12F08D
:10090000FF0F09D1596D0160BFF35B8F83F852204F
:10091000BFF35B8F012010BD002010BD4C040020F0
:1009200010B5114BBFF35B8F03F152014FF001047F
:10093000D1E84F2FC1E84E4FBEF1000FF8D1BFF301
:100940005B8F12F0FF0F0CD1B3F854100844A3F8DA
:100950005400BFF35B8F83F85220BFF35B8F0120FD
:1009600010BD002010BD00BF4C040020094B0A48F8
:1009700000224FF6FF7183F85A20A3F85420A3F801
:100980005610BFF35B8F83F85220BFF35B8F00F0EC
:100990008BBC00BF4C0400200D080000034BBFF3CC
:1009A0005B8F93F85A00BFF35B8F70474C040020B5
:1009B000044BBFF35B8F002283F85A20BFF35B8F99
:1009C000704700BF4C040020002808B508DA4042F8
:1009D000C0B2FFF701FF4042044BA3F85C0008BD22
:1009E000FDD0C0B2FFF7F8FEF6E700BF4C040020D0
:1009F000F8B5064600F0AAFC2F4C0746B4F858009C
:100A0000B04286BFC0F500608019301A05B200F010
:100A1000A5FC94F864306BB394F8653053B3B4F824
:100A20006630FB1A13FB00F000B2002822DB90FBBB
:100A3000F5F094F85E3001B243B12278B4F860303A
:100A400004EB420252889B1AA4F86030237804EB2E
:100A5000430201335180B4F8602028211044B3FBD5
:100A6000F1F201FB1233A4F86000237013B90123E3
:100A700084F85E30EFF3108372B6BFF35F8FBFF37D
:100A80004F8FBFF36F8FA4F8586083F31088BFF3C4
:100A90005F8FBFF34F8FBFF36F8FBFF35F8FBFF3D6
:100AA0004F8FBFF36F8F012384F86430A4F8667012
:100AB00084F86530F8BD00BF4C0400202D4B2E4853
:100AC0001B681A78002210B51A7059785A709978F4
:100AD0009A70D978DA7019791A7159795A719979A5
:100AE0009A71D9792549DA71402402600C70197B1A
:100AF000282119735C7B5A739C7B9A73DC7BDA73B5
:100B00001C7D1975597D5A75997D9A75D97DDA754F
:100B100003F104715431490101244C60D96821F07A
:100B2000C001D9606924197B1C73597B5A73997B66
:100B30009A73D97BDA73596921F0C0015961197D23
:100B40001C75597D5A75997D9A75D97D0C49DA7550
:100B50004FF480240C600B4904240C6007210160D1
:100B600019780821197059785A7099789A70D9783B
:100B7000DA7010BDD42B00000C8000401F800040B4
:100B8000A0A0044000E100E02DE9F843B54BB64ACF
:100B9000B64F01251D60B64B1A60B64B3B60B64B95
:100BA000FF261E6043F80C6CB44B1D60C3F88050E8
:100BB000B34B002480221A602046DC605C6101F0A7
:100BC00063FB284601F060FB022001F05DFBAD4BAA
:100BD000AD481B6806704FF008081A7F83F81C8028
:100BE0005A7F5C7718601A7C6FF03B021A746FF0C2
:100BF0000F0C5A7C83F811C04FF00F0E9A7C83F8CB
:100C000012E04026DA7CDE741A7A1D725A7A5C721F
:100C10009A7A9C72DA7ADC726FF07F019A7F997708
:100C2000DA7F1622DA7793F81690997593F8179071
:100C3000DA7593F83C9083F83C8093F83D8083F814
:100C40003D4093F8288083F8285093F8298083F852
:100C5000294093F82A8083F82A4093F82B8083F860
:100C60002B4093F83E8083F83E1093F83F8083F842
:100C70003F2093F8368083F8361093F8378083F856
:100C8000372093F85C804FF00A0883F85C8093F873
:100C90005D8083F85D40186493F850006FF0370072
:100CA00083F8500093F8510083F851C093F8520034
:100CB00083F852E093F8530083F8536093F84800A8
:100CC00083F8485093F8490083F8494093F84A0064
:100CD00083F84A4093F84B0083F84B4093F85E004A
:100CE00083F85E1093F85F0083F85F2093F8560056
:100CF00083F8561093F85710644883F857206449D6
:100D0000644E654B34700C7004701D60634B1B683F
:100D10001A781C705A785C709A789C70DA78DC705B
:100D20001A7A41221A725A7A5C729A7A9C72DA7A28
:100D3000DC721A7B28221A7393F80DE05C7393F827
:100D40000EE09C7393F80FE0DC7393F814E01A75CF
:100D500093F815E05C7593F816E09C7593F817E02E
:100D6000DC7593F810E04FF00D0E83F810E093F867
:100D700011E05C7493F812E09C7493F813E0DC7457
:100D800093F818E01A765A7E5C769A7E9C76DA7E24
:100D9000DC76434B434A1D604FF470233B60424B6B
:100DA0001A60B2233370A2230370A3230B7000F0E8
:100DB0004FFA01382B463D4D042851D8DFE800F0AA
:100DC000093F034A440002232B604FF0FF336B605E
:100DD00005E06FF00103022285E80C0001232422C4
:100DE00033493448AB6001F02FFD0023314A1946E6
:100DF000985C082888BF99540933242BF8D100F057
:100E000033FA2D4B85F8300001221A602B4B4FF43A
:100E100072621A602A4A4FF480711160294940F6C3
:100E20005F120A608A6040F6A1721A600023BFF365
:100E30005B8F85F83130BFF35B8FBDE8F8832B60A3
:100E40006B606FF00103CAE72B604FF0FF336B60FC
:100E50000223C4E702236B602C604FF0FF33BEE730
:100E60002C60B4E7300790420001FFFF84C00440CB
:100E700080C004400000FFFFD4F00F408407904280
:100E800000800040E02B00000080FF1F01100240A6
:100E9000021002400010024060069042D42B000075
:100EA000280790420003010048A00440B404002039
:100EB00030000014C0040020D807904200600340B6
:100EC00008E100E0046003400C4B02221A700C4B56
:100ED0001B681A7800221A7059785A7099789A709B
:100EE000D978DA70074B04211960074B1A6003F1B7
:100EF000177303F5786301221A6070471F80004062
:100F0000D42B000080E100E0C0F00F40054A002330
:100F10001360054ABFF35B8F82F83130BFF35B8FFC
:100F2000704700BF18006C42B40400202DE9F04F58
:100F30007B4ABFF35B8F93B002F131010124D1E80A
:100F40004F3FC1E8454F002DF9D1BFF35B8FDBB2B6
:100F5000002B40F0E18000F1614101F580114FEA82
:100F6000411B4168039150689168CBF80840DFF855
:100F7000BC81079044180094089109931F4602927F
:100F80000DF1280E674A9E5C002E00F08480029AC4
:100F9000039892F830501168BD4201443C4608BFA6
:100FA000B1310020B0425BD3A5420A9965D001F16E
:100FB000B4020192009AC2F1030109910DF11C0CD7
:100FC0000A99019A914260D008F1080400205CF867
:100FD00020A0E14600215EF82120157809F8015D86
:100FE00002EB0A054EF8215001318E42F3D80599E3
:100FF000069D81EA151909F00F3985EA091A8AEA6E
:101000009A4589EA010943F2333129408AEA010508
:1010100085EA814543F2333A89EA994101EA0A0AAD
:1010200089EA0A0181EA8A4185EA552981EA512A39
:1010300009F055190AF0551A8AEA010189EA0505ED
:10104000013081EA4A2185EA4925032844F8081C31
:1010500044F8045C04F10804B9D108F11808AFE7BA
:10106000304A00EB030C9444B4229CF801C00CFB02
:10107000021C4EF820C0013094E7A1F1B4020192A5
:10108000009A6FF00201891A97E70933242B87F041
:1010900001077FF477AF244B24491B680022CBF86B
:1010A0000820196293F82410012183F8241093F882
:1010B000251083F8252093F82C206FF07F0283F809
:1010C0002C2093F82D206FF0160283F82D2093F832
:1010D0002E204FF0FF3283F82E2093F82F1083F844
:1010E0002F2093F830206FF03F0283F8302093F8E0
:1010F00031206FF00F0283F8312093F832200F2255
:1011000083F8322093F83320402283F8332013B041
:10111000BDE8F04FFFF7D2BC13B0BDE8F08F00BFC1
:10112000B4040020C0040020E02B00000480FF1F56
:10113000234BBFF35B8F4FF00101D3E84F2FC3E880
:10114000401F0028F9D1BFF35B8F12F0FF0F35D19C
:101150001C4B1D491B68196293F8241083F8242046
:1011600093F8251083F8252093F82C1083F82C2071
:1011700093F82D1083F82D2093F82E1083F82E204D
:1011800093F82F1083F82F2093F8301062F0370176
:1011900083F8301093F8311062F00F0183F83110AA
:1011A00093F8321042F00F0183F8321042F04002FF
:1011B00093F8331083F83320FFF780BC704700BFEB
:1011C000E5040020E02B00000080FF1F38B5164822
:1011D000164D01F023FB164B1B6883420CBF012305
:1011E00000232B701ED1134801F0ECFA04466870FE
:1011F000114801F0E7FAA870001B441CC4EB04146A
:10120000A400A4B20D48AC8001F0DCFA002816BF9F
:101210000123002304F5F074AB7118BFAC80FFF715
:10122000EDF9288138BD00BF00000014E60400205D
:10123000502B00002200001423000014240000148E
:10124000014B9888704700BFE604002003207047D8
:10125000034B187810B1034801F0B4BA704700BFCF
:10126000E60400202100001408B5064B1B7833B1BA
:10127000054801F0A7FA003018BF012008BD012081
:1012800008BD00BFE604002025000014044B987937
:10129000044B03F10802002814BF1846104670479B
:1012A000E6040020542B000010B5044600F0E0FFD7
:1012B0000D4B0E491C600E4B1B6800229A601020DB
:1012C0000122DA6008600B4919600221996003214C
:1012D0009960094B1A60A3F5C0731A60074B4FF46D
:1012E00080721A6010BD00BFF004002008E100E029
:1012F000D02B0000FF4B1D008812FE4308B00440B5
:10130000094A0A49126810B50124D460084A1460D9
:101310000A6842F004020A60064A126802B1904765
:10132000054B1C6010BD00BFD02B000084F00F40A7
:101330008810FE43F00400200811FE43024B1B6896
:10134000186880B2704700BFD02B0000024B1B68AA
:10135000586880B2704700BFD02B00004FF0FF30BC
:101360007047FFFF024B1A681368184410607047FB
:10137000D02B0000024B00221A705A70704700BF39
:10138000F40400207047FFFF2DE9F041FFF7A1F9B9
:101390001D4C0546A8B92378022B07D162780A2094
:1013A000013292FBF0F100FB112262700133032243
:1013B00093FBF2F202EB42029B1A23702846BDE82F
:1013C000F081022303704668FFF73AFF3C23B0FB2D
:1013D000F3F023786778C0B24FF0030E00224FF08D
:1013E000B40C1E444FF010088242D4D20CFB02F31E
:1013F0001EFB073339463B2901D90132F4E706F8D1
:1014000003800A311E33F6E7F404002000487047D9
:10141000902B000038B5074C236843B102225D6869
:101420001A706560FFF7EAF82844A06038BD636071
:10143000A36038BDF804002010B5054C236813B92B
:10144000FFF7F6F82060BDE81040FFF7E3BF00BFEC
:10145000F804002010B5074C012000F087FB20683D
:1014600018B1FFF705F90023236000236360A36030
:1014700010BD00BFF804002000487047FC040020A5
:1014800010B5084C2068FFF75DF930B1FFF7D0F8D0
:101490002060BDE81040FFF7BDBFBDE81040FFF77A
:1014A000D9BF00BFF804002038B5094D2C68041BD3
:1014B000A4B25CB122462968012000F0BFFF2B686E
:1014C000241A03442B60A4B20028F2D138BD00BF17
:1014D00004050020214A136843F4A02310B51360CB
:1014E0001F4B02221A601F4B01221A601E4B4FF441
:1014F00000721A601D4B1A7842F080021A701A7836
:101500001206FCD400F0DAFE00F0CAFE184A0312FC
:1015100003F0FE031370174BC0F307421A70000E5E
:10152000154A1871FF231370137200F09BFA134BC6
:1015300001221A700024102283F86C40204683F8A0
:10154000742000F0CFFA0E4B11221A7003F8704C81
:101550000C4B4FF400721A6010BD00BF04800440B1
:1015600048800440C806904288E100E00C21074012
:101570009C200740B020074080200740942007406F
:101580008420074008E100E008B500F0BBFA031F23
:101590005842584108BDFFFF08B5FFF74DFFFFF760
:1015A0006BFF044B02681A604068BDE80840FFF713
:1015B0007BBF00BF04050020F8B5B04D2B785C0759
:1015C0000FD5AF4B1A7850070BD504221A7024336D
:1015D000AC4A1B78107840EA0320C0F30A00FFF7FA
:1015E00007FA2B78D90715D5A54B1A78D20711D54C
:1015F00019221A702B7843F01C032B7000F07AFE2E
:10160000002000F08DFA002000F0FAFD10B1022059
:1016100000F068FA2B789C4C13F0100F16D0984A03
:101620001378DB0612D52B7803F0E3032B70182315
:10163000137092F8803043F0800382F88030237872
:1016400043F020032370052000F04CFA23789F0616
:1016500019D52378DE0716D523788C4A03F0DE03EC
:101660002370137803F07F031370854B10221A70D8
:101670002B7843F01C032B7000F0B6FD00287DDDB5
:10168000042000F02FFA2B78180740F1AA807C4D37
:101690002B78190740F1A58000F0FCF97C4B1C78F1
:1016A00008232B7000F0FCFDE4B2A70800EBC7058F
:1016B00006462409284600F009FE002C40F0478128
:1016C0000D2840F0A880204600F0F6FE6A68714CB4
:1016D000136863605368A360237B13F0FD0F03D08E
:1016E00004F10C0000F093FB00F002FE0138C5B2DB
:1016F0000026FF2D4ED1002000F0F2FE664A674919
:10170000137803F0DF03137001F1080000F074FB9D
:10171000634800F08BFB01221146002000F02CFEF4
:1017200000210122084600F027FE237B032B45D130
:10173000258B6369A3622B44E36223690020DE8862
:1017400000F010FAB5423FBFB5FBF0F300FB1350B9
:1017500080B2B0FA80F034BF4009002084F8300035
:1017600000F0C6FD258B064616B1013EF6B2D5B98E
:1017700000221146104600F061FE32E000F0C8F988
:1017800008B103207DE700F02FFD08B9022078E7BB
:10179000012076E72A460121002000F085FD013D69
:1017A0000660EDB2A5E72A46A16A002000F0A6FE79
:1017B000A36A2D1A0344A362ADB2D5E7042B18D156
:1017C0006169228BA1628B18E362002000F036FE73
:1017D000E26AA16A8A4204D018B101448A4204D163
:1017E000A262304BFF221A70F8BD521AA16292B267
:1017F000EBE7062B08D100252A4629462846A56294
:10180000E56200F07BFEB3E7002000F0AFF924486A
:1018100000F0FDFAACE7092846D11E4E337B032BBE
:10182000374620D1284600F055FD014606F10C0050
:1018300000F0F5FAB16AF26A914208D0521A92B2F7
:10184000204600F05BFEB36A1844B062C9E796F820
:101850003030002BC5D022462146204600F04EFEF7
:1018600086F83040BDE7062BBBD1336A13B106F1D1
:101870000C00984700233B73B3E700BF8420074068
:1018800080200740A02007400C210740002107408E
:101890009020074004050020942007400805002000
:1018A000100500208820074001289AD12046474C87
:1018B00000F002FE237B042B37D1608B268B361A77
:1018C000284600F007FDB6B2B04228BF304687B2C6
:1018D000E06A6968801B884202D03A4601F066F8E7
:1018E00039463B4800F09BFA237B062B0FD101229F
:1018F0001146002000F040FD00221146104600F085
:10190000FDFD00221146104600F036FD30E7A16AC9
:10191000E26A91423FF465AF521A92B2002000F0A1
:101920008DFDA36A1844A0625BE7052B7FF420AF0E
:1019300056F837305A067FF554AF236A0BB1244866
:101940009847002525732A4629462846DCE7012CBE
:101950007FF447AF01287FF444AF00F0ADFDFFF7FF
:101960008BFD036806461BB3284600F0B3FC074610
:1019700096E81100241AA4B26968BC4228BF3C460C
:101980008842A4B202D0224601F010F833681C4409
:101990003460012000F016FD0E4B71681B78326830
:1019A00080B28742DBB206D29B0601D4914204D0BA
:1019B000FFF750FD15E7914204D1FFF761FD034B9E
:1019C00032681A607068FFF76FFD0AE704050020AF
:1019D00010050020882007401A4A012830B51070F1
:1019E0000DD002D302281CD030BD174A202313602B
:1019F000164A126800219161154A136030BD154BDB
:101A000020241C60114B1B6800219961D861124889
:101A100004605170114A1A6102229A6103229A618C
:101A200030BD0C4B20241C60084B1B680021012595
:101A30009961DD61084D91702C605170084A1A61FE
:101A40009861EBE73505002088E100E0D02B00002D
:101A500088F00F4084F00F4008E100E0FF356E0190
:101A6000FF9E2400094A08B50123136002F1B772F2
:101A700002F668321360064B4FF480721A6000F071
:101A8000F7FB0020BDE80840FFF7A6BF2C079042F7
:101A900014B00440014B01229A70704735050020B4
:101AA0000C4B1B680122DA610B4B5A7832B10B499F
:101AB0002020086082F001025A70704719780129CD
:101AC00002D099780029F5D005492020086000212E
:101AD0009970EFE7D02B00003505002084F00F400F
:101AE00088F00F40064B187018B1042803D9052858
:101AF00004D0002000E00220FFF76EBF0120FBE7CA
:101B000038050020014B1878704700BF38050020C9
:101B1000024B187800F07F00704700BF9820074004
:101B2000024B00F07F001870704700BF98200740FC
:101B300010B5044600221146204600F07FFC002824
:101B4000F8D110BD10B502B2054B0021044603F8D0
:101B5000221000F029FC2046BDE8104000F05CBCDB
:101B6000C020074008B500F02DFC08BD084B13F855
:101B70002010024601F00C0100291DBF13F82210AD
:101B800041F002010120002018BF03F82210704725
:101B9000C0200740084B13F82010024601F00C014A
:101BA00000291DBF13F8221001F0FD0101200020C3
:101BB00018BF03F822107047C0200740054A12F8EA
:101BC000203013F00C031ABF12F82000C0F34000BD
:101BD00018467047C020074010B502B2084B13F8F2
:101BE000222012F00802044604D10121BDE8104071
:101BF00000F0C2BB00F074FC002211462046F5E75D
:101C0000C02007402DE9F04104460078FFF79AFF15
:101C1000236823F07F4323F0FF03B3F5403F35D023
:101C20006278A37812F1FF3518BF0125022B06D088
:101C3000032B24D0012B25D145F0080501E045F008
:101C400004052179207800F0AFFB074648B1A3785E
:101C50009A071DD4A378DB0703D5207800F0BCFBDE
:101C600007462278174B03F822502FB12078FFF750
:101C7000B3FFA3680BB398473846BDE8F08145F041
:101C80001C05DEE7012A15D00125DAE70D25D8E786
:101C900000F02EFB0138C6B24FF00008FF2ED9D05D
:101CA00032460121207800F0FFFA013EC0F80080A2
:101CB000F6B2F3E700252F46D3E72078FFF738FF89
:101CC000DAE700BFC02007408389C2899A4204BF77
:101CD00006230370704710B50446806818B100F001
:101CE0005DFE0023A36010BD10B54368044658880C
:101CF00040B200F085FA63685B8823B90220BDE832
:101D00001040FFF7EFBE0420F9E710B543685C8888
:101D1000E4B22046FFF704FF24B10320BDE81040E1
:101D2000FFF7E0BE10BDFFFF38B5044608460D467C
:101D300000F02CFEA06040B1032323700023E38158
:101D4000024B2361024BA581A36138BDDD1D00005C
:101D5000D71C000010B50446806858B16368064976
:101D60009B88A289194400F08DFDA06800F016FE42
:101D70000023A36010BD00BF0000001410B5054C87
:101D8000206828B1FEF774FC002323606360238180
:101D900010BD00BF3C0500208389C2899A4270B5FE
:101DA000064618D10C4C258963681544ADB213441E
:101DB00025816360FEF722FC85420AD12068FEF788
:101DC000C1FC10B92068FEF753FC00232360636058
:101DD00023810623337070BD3C050020C2898389AE
:101DE0009A4210B5044606D1806800F0D7FD002362
:101DF000A3600523237010BD002343610361836149
:101E000083608381C38101230370416070478369CC
:101E100010B5044603B198470223237010BDC28950
:101E200003691144C18103B1184770472DE9F3419B
:101E300043681A7812F06001044605D0402900F08A
:101E4000DC8002B0BDE8F08159780929F9D801A0F9
:101E500050F821F07D1E0000B11F0000431E00005D
:101E60008D1F0000431E0000BD1E0000051F000066
:101E7000431E0000D71E0000F11E00000221204674
:101E8000FFF752FF0028DCD062681378812B03D063
:101E9000822B05D0802B0BD1A36800221A80D0E7BB
:101EA0009088A46800F00F00FFF788FE2080C8E744
:101EB000204602B0BDE8F041FFF7A9BF002AC0D11B
:101EC0009A88002ABDD1DB88002BBAD10623237063
:101ED000BC4B6361B5E7802AB3D101212046FFF7EF
:101EE00023FF0028ADD0A46800F07EF92070A8E799
:101EF000588840B200F07EF90028A2D00623237053
:101F0000B14BE6E7802A9CD1184600F089FB0646D3
:101F1000002896D06368DD8800F078FB854228BFF2
:101F20000546ADB229462046FFF7FEFE074650BBE8
:101F3000B468304600F032FD2646002CF8D180E728
:101F4000022D2C4628BF02242246314638462D1B3E
:101F500000F02CFD2744ACB235787268B078023DB1
:101F6000EDB2A54228BF25462B463946FEF716FBA3
:101F70002F44651BB4683046ADB200F00FFD002C55
:101F80003FF45FAF2646002DDAD1D1E7022A7FF475
:101F900058AF5A88002A7FF454AF988800F00F0099
:101FA000FFF7E4FD00283FF44CAF0623237048E719
:101FB000022A7FF446AF5A88002A7FF442AF9D88F8
:101FC00005F00F052846FFF707FE00F00DF900F0B9
:101FD00045F950B10378AB4207D9436805EB450298
:101FE00003EB82039B6823B198472846FFF7D2FD95
:101FF000D8E72846FFF79CFDF7E7402A59D15A78E1
:10200000012A23D1714DFEF7F9FA2F68064657B918
:10201000FEF70EFB286000283FF413AF0223037085
:1020200043682F816B606B68A3602B89F61A636825
:10203000DB88B6B29E4228BF1E460023E381644B74
:102040002361644BA681A3610423AFE7032A16D161
:10205000DD889B882B44B3F5006F28463FF7F1AE2F
:1020600000F094FCA06000283FF4EBAE0023E38175
:10207000594B2361594B6361A581594BE3E7062A0C
:102080007FF4DFAE588805B22823143595FBF3F5AD
:1020900005EB450303EBC30300EBC30040B2FEF7BF
:1020A00093FC28B2FEF73CFC00287FF47EAF0223AD
:1020B0007CE7C02A7FF4C5AE5A78022A4AD1FFF7DE
:1020C000E5F80746FEF77EFA63680230DD8886B2DF
:1020D000B54228BF3546012D7FF6B3AE29462046CE
:1020E000FFF722FE00283FF4ACAE02466B4622F812
:1020F000026B3868796803C3023DADB21DB19DF82B
:102100000030FF2B01D1032350E7012D13700AD1BA
:1021100002F101084FF6FF7557F8080F79686B4612
:1021200003C34246EAE7023D9DF801605670ADB236
:1021300002F10208002DEFD0AE4228BF2E464146E4
:102140003346019A9DF80200AD1BFEF727FAB04412
:10215000ADB2E1E7042A1DD19D88B5F5006F3FF6C9
:1021600070AEDC88B4F5006F28BF4FF400646319CB
:10217000B3F5006F3FF765AE2146FFF7D5FD0028A8
:102180003FF45FAE17492246294402B0BDE8F04152
:1021900000F05ABB052A7FF454AED98804297FF495
:1021A00050AEFFF7C1FD00283FF44BAEA4682046B7
:1021B000FEF794FB00287FF444AE4FF6FF73638074
:1021C0003FE600BF0B1D0000E91C00003C0500209D
:1021D000991D00007D1D0000C91C0000551D000058
:1021E000D71C000000000014014B93F90000704759
:1021F00001000020C0B201288CBF002001207047E0
:102200007FB5C3B2012B064607D9002303F00100B6
:102210000BB1104B1E7004B070BD0F4B03EBC0022E
:1022200013F83030546803EB430304EB83050120BB
:10223000A5420CD00028E8D02068616801AB03C338
:10224000A068186001A8FFF7DDFC0C34F0E7034636
:10225000DCE700BF010000209C2B0000C3B2012B73
:102260009ABF024B03EBC000002070479C2B00007C
:10227000034B01221A60034B00221A60704700BF13
:10228000DC0790420070034008B5400100F1804037
:102290002022002100F5104000F093FB08BDFFFF55
:1022A000004870470006002042EA410242EA8002EC
:1022B000014800EBC20070470006002040220021C8
:1022C000014800F07EBB00BF000600200068C0F39C
:1022D000830070474088C0F30900704701F0010196
:1022E000890141F08801C0F3090041EA00407047CC
:1022F00002207047064A1378DBB243F002011170E6
:102300000449002003F0FD0308641370704700BF08
:102310009420074000060020034B41EA40015B0186
:1023200053F82100C0B27047400610A138B50A4CDE
:102330002318002193F84420013AD2B2054683F8CD
:102340004420FFF7E9FF104400F0010040EA850057
:10235000002344F8303038BD00060020054B41EA28
:1023600040015B0153F82100C0B280F0010243F844
:1023700021207047400610A1034B41EA40015B0158
:1023800043F82120704700BF480610A1054B41EAE1
:1023900040015B0153F82100C0B280F0010243F814
:1023A00021207047480610A101289DBF044B1B182F
:1023B0000122002298BF83F84C101046704700BFDE
:1023C0000006002001289DBF024BC01890F84C0069
:1023D0000020704700060020012838B5054612D8B5
:1023E0000B4B034493F84C407CB1600000F0CEFAF4
:1023F000084B43F8350003EBC50304445C60003030
:1024000018BF012038BD0020F9E72046F7E700BFDC
:10241000000600206006002038B5074C054654F839
:10242000300038B100F0BAFA002344F8353004EB3C
:10243000C504636038BD00BF600600202DE9F84385
:102440001B4E3718054697F84440012C89462CD876
:102450000021FFF761FF631C044404F0010444EA17
:10246000850887F8443006EBC80197F84C30B9F17D
:10247000000F12D0934228BF1346C1F804901C46A7
:1024800000212846FFF782FF01462046FFF726FF7E
:1024900046F838002046BDE8F88304EB4504054AB9
:1024A00052F824204A609CB2EAE70024F2E700BF19
:1024B000000600206006002070B5084C044494F823
:1024C0004450002D14BF0126002605D00021013DF7
:1024D000FFF744FF84F84450304670BD00060020EA
:1024E00038B5054C0546044494F8443003B938BD6A
:1024F0002846FFF71BFFF7E7000600202DE9F84309
:10250000894601210646FFF707FF40EA8600124F81
:1025100040F0020507EBC50857F835301B0618D404
:10252000BB19012193F84C403046944228BF144611
:10253000FFF72CFF01462046FFF7D0FE012147F8A8
:102540003500C8F804903046FFF708FF2046BDE884
:10255000F8830024FAE700BF00060020013870B5B8
:102560000D4604280BD8DFE800F0033305333100B3
:10257000102070BD012A0DD003D3022A15D00020EF
:1025800070BD08460388821C13B9401BC0B270BDE1
:102590001046F7E70B8808464FF6FD72013B9BB2E9
:1025A0009342F2D830F8023FF8E7084600F020F9ED
:1025B0002C464FF6FD76013880B2B04201D9601B3F
:1025C000E4E70234204600F013F9F4E7052070BD7B
:1025D000072070BD08B5FFF7C1FF0230C0B208BDCB
:1025E000F8B507460C200D46164600F0CFF9044614
:1025F00050B1324629463846FFF7ECFF00232070E1
:102600006770A6706560A3602046F8BD002308B916
:10261000184670470278806813449BB2F7E7FFFFC3
:1026200070B503464088C2B2000A02281DD00328B4
:1026300009D0012842D1002A40D121490246BDE8F3
:102640007040FFF7CDBF12B901221E49F7E7042AF7
:1026500034D8998840F2094399422FD1184B013A56
:1026600003EBC2031A7E5969E9E73ABB164D174CD2
:102670002B682360AB88A380AB79A3712146FFF759
:10268000AFFF01220646E91D0420FFF7A9FF3346EC
:102690009A687AB9986001220D490520FFF7A0FFDA
:1026A00033469A6842B998603046FFF7AFFF208002
:1026B000304670BD1346EBE71346F2E70026F7E716
:1026C000E42B0000F42B0000182C00004E06002024
:1026D000262C000008B50B4D2C462B68580301D55D
:1026E000FEF76AFF2368590501D500F00DF823684D
:1026F0001A0501D500F008F82368DB04EDD500F0D9
:1027000003F8EAE73480044008B5FFF7E3FFFFFF72
:10271000014B10221A807047002005407047FFFFD0
:10272000024A1368184410601846704704000020DD
:10273000024A1378DB07FCD5704700BF0100024056
:102740007FB51B4B6A4603F110066D461868596841
:10275000144603C40833B3422246F7D1154E3278EB
:10276000910706D4144B3278D2071ED4013BFAD11C
:102770001BE0124A137813F0700318BF1370104B4C
:1027800080221A70002203F8032C33221A710322CC
:10279000DA7072B6094C45F001032046984762B6DC
:1027A000237813F07003DDD0237004B070BD00BF38
:1027B000B42C000001000240410D03000000024063
:1027C0000700024010B500F16C44B4F5006F0AD266
:1027D000064B1B78DB0701D4FFF7B2FF04F1A054CE
:1027E0002078C0B210BD002010BD00BF0100024023
:1027F00010B540F2FE7300F16C449C4209D8064BC0
:102800001B78DB0701D4FFF79BFF04F1A05420885D
:1028100010BD002010BD00BF0100024010B540F205
:10282000FC7300F16C449C4209D8064B1B78DB0713
:1028300001D4FFF785FF04F1A054206810BD0020EB
:1028400010BD00BF0100024070B50D4B1B7801F1B7
:102850006C44DB07054604EB020601D4FFF770FF6A
:10286000B6F5006F28BF4FF40066681EB44200D36F
:1028700070BD04F1A05301341B7800F8013FF5E767
:1028800001000240F8B501F16C45B5F5006F064650
:10289000144613D2294B1B78DB0701D4FFF750FFF6
:1028A000B4F5006F28BF4FF400642B19B3F5006F27
:1028B000234928BFC5F50064304604B9F8BD15F0BA
:1028C000030205F1A05311D1032C11D950F8046B68
:1028D0001A68964207D00A7812F0700218BF0A7080
:1028E0001E60FFF725FF0435043CE6E7022A15D1F8
:1028F000012C13D047780278861C188842EA0722F8
:10290000904207D0087810F0700018BF08701A8045
:10291000FFF70EFF0235023C3046CEE7461C1A7820
:102920000078904207D00A7812F0700218BF0A703F
:102930001870FFF7FDFE0135013CEDE70100024094
:102940000000024070B50D4E0D4CA41BA4100025D4
:10295000A54209D10B4E0C4C00F0B4F9A41BA410F5
:102960000025A54205D170BD56F8253098470135A0
:10297000EEE756F8253098470135F2E7D02C0000F5
:10298000D02C0000D02C0000D42C0000024B0146BB
:10299000186800F06DB800BF08000020024B014627
:1029A000186800F017B800BF0800002010B5431EDB
:1029B0000A44914200D110BD11F8014B03F8014FB8
:1029C000F7E702440346934200D1704703F8011B26
:1029D000F9E7FFFF38B50546002945D051F8043C1A
:1029E0000C1F002BB8BFE41800F0B0F81F4A1368A2
:1029F000104633B9636014602846BDE8384000F0E3
:102A0000A6B8A3420CD921686218934204BF1A6881
:102A10005B68636004BF521822600460ECE71346F1
:102A20005A680AB1A242FAD919685818A0420BD1C3
:102A300020680144581882421960DDD1106852683C
:102A40005A6001441960D7E702D90C232B60D3E701
:102A5000206821188A4204BF11685268626004BF6E
:102A6000091821605C60C7E738BD00BF5806002028
:102A700070B5CD1C25F0030508350C2D38BF0C258D
:102A8000002D064601DBA94203D90C233360002048
:102A900070BD00F05BF8234A1468214691B9224CBE
:102AA00023681BB9304600F041F8206029463046C3
:102AB00000F03CF8431C26D10C233360304600F074
:102AC00046F8E4E70B685B1B1AD40B2B0FD90B609D
:102AD000CD50CC18304600F03AF804F10B00231D1D
:102AE00020F00700C31A1BD05A42E25070BD8C423E
:102AF0000DBF63684B686360136018BF0C46E9E75D
:102B00000C464968CAE7C41C24F00304A04205D05F
:102B1000211A304600F00AF80130CDD02560D9E7FF
:102B200070BD00BF580600205C06002038B5064C7A
:102B30000023054608462360FFF7F2FD431C02D13F
:102B4000236803B12B6038BD7006002070477047C2
:102B500049004300020201008E2B00000301010026
:102B60008D2B0000010101008C2B000004020000ED
:102B7000EE04002002020000E7040020051001001E
:102B800060000014FF0003000000000001014F5628
:102B90007513000085130000891300000100000078
:102BA000C42B000002000000AC2B0000000003005A
:102BB0004000000000000000010201004000000091
:102BC0009915000000000300400000000000000014
:102BD0000071034000800B400090034000800340E0
:102BE00000900040000200000040E31C02002003AF
:102BF0000102040109040000902C00000100000003
:102C0000542C0000010000002C2C000001000000EA
:102C10000000001402000000000001010080190003
:102C20000001FF0000030102400000005300740097
:102C3000650061006D00730068006F00760065003C
:102C40006C00200064006900730070006C0061007B
:102C500079000000490063006500430075006200D0
:102C6000650020006500760065006E00740020009D
:102C700064006900730070006C006100790020003E
:102C80007300650067006D0065006E007400000051
:102C900055006E00690076006500720073006900DF
:102CA00074006500690074002000470065006E0034
:102CB000740000006FF07F030370037813F0800F3F
:102CC000FBD07047F8B500BFF8BC08BC9E46704703
:042CD00035040000C7
:042CD400F8B500BF90
:102CD80018FF0000740600200C000020000000000F
:102CE80000000000000000000000000000000000DC
:102CF80000000000000000000000000000000000CC
:102D080000000000000000000000000000000000BB
:102D180000000000000000000000000000000000AB
:00000001FF